{
  "_format": "hh-sol-artifact-1",
  "contractName": "RationDistribution",
  "sourceName": "contracts/RationDistribution.sol",
  "abi": [
    {
      "inputs": [
        {
          "internalType": "string",
          "name": "_initialVerificationCode",
          "type": "string"
        }
      ],
      "stateMutability": "nonpayable",
      "type": "constructor"
    },
    {
      "anonymous": false,
      "inputs": [
        {
          "indexed": true,
          "internalType": "uint256",
          "name": "id",
          "type": "uint256"
        },
        {
          "indexed": false,
          "internalType": "string",
          "name": "beneficiaryName",
          "type": "string"
        },
        {
          "indexed": true,
          "internalType": "string",
          "name": "beneficiaryId",
          "type": "string"
        }
      ],
      "name": "TransactionAdded",
      "type": "event"
    },
    {
      "anonymous": false,
      "inputs": [
        {
          "indexed": true,
          "internalType": "uint256",
          "name": "id",
          "type": "uint256"
        },
        {
          "indexed": false,
          "internalType": "string",
          "name": "reason",
          "type": "string"
        },
        {
          "indexed": false,
          "internalType": "string",
          "name": "verifierName",
          "type": "string"
        }
      ],
      "name": "TransactionRemoved",
      "type": "event"
    },
    {
      "inputs": [
        {
          "internalType": "string",
          "name": "_beneficiaryName",
          "type": "string"
        },
        {
          "internalType": "string",
          "name": "_beneficiaryId",
          "type": "string"
        },
        {
          "internalType": "string",
          "name": "_itemType",
          "type": "string"
        },
        {
          "internalType": "uint256",
          "name": "_quantity",
          "type": "uint256"
        },
        {
          "internalType": "string",
          "name": "_shopId",
          "type": "string"
        },
        {
          "internalType": "string",
          "name": "_officerName",
          "type": "string"
        }
      ],
      "name": "addTransaction",
      "outputs": [
        {
          "internalType": "uint256",
          "name": "",
          "type": "uint256"
        }
      ],
      "stateMutability": "nonpayable",
      "type": "function"
    },
    {
      "inputs": [
        {
          "internalType": "string",
          "name": "_newVerificationCode",
          "type": "string"
        },
        {
          "internalType": "string",
          "name": "_oldVerificationCode",
          "type": "string"
        }
      ],
      "name": "changeVerificationCode",
      "outputs": [
        {
          "internalType": "bool",
          "name": "",
          "type": "bool"
        }
      ],
      "stateMutability": "nonpayable",
      "type": "function"
    },
    {
      "inputs": [],
      "name": "getStats",
      "outputs": [
        {
          "components": [
            {
              "internalType": "uint256",
              "name": "totalTransactions",
              "type": "uint256"
            },
            {
              "internalType": "uint256",
              "name": "removedTransactions",
              "type": "uint256"
            }
          ],
          "internalType": "struct RationDistribution.Stats",
          "name": "",
          "type": "tuple"
        }
      ],
      "stateMutability": "view",
      "type": "function"
    },
    {
      "inputs": [
        {
          "internalType": "uint256",
          "name": "_id",
          "type": "uint256"
        }
      ],
      "name": "getTransaction",
      "outputs": [
        {
          "components": [
            {
              "internalType": "uint256",
              "name": "id",
              "type": "uint256"
            },
            {
              "internalType": "string",
              "name": "beneficiaryName",
              "type": "string"
            },
            {
              "internalType": "string",
              "name": "beneficiaryId",
              "type": "string"
            },
            {
              "internalType": "string",
              "name": "itemType",
              "type": "string"
            },
            {
              "internalType": "uint256",
              "name": "quantity",
              "type": "uint256"
            },
            {
              "internalType": "string",
              "name": "shopId",
              "type": "string"
            },
            {
              "internalType": "string",
              "name": "officerName",
              "type": "string"
            },
            {
              "internalType": "uint256",
              "name": "timestamp",
              "type": "uint256"
            },
            {
              "internalType": "bool",
              "name": "removed",
              "type": "bool"
            },
            {
              "internalType": "string",
              "name": "removalReason",
              "type": "string"
            },
            {
              "internalType": "string",
              "name": "verifierName",
              "type": "string"
            },
            {
              "internalType": "uint256",
              "name": "removalTimestamp",
              "type": "uint256"
            }
          ],
          "internalType": "struct RationDistribution.Transaction",
          "name": "",
          "type": "tuple"
        }
      ],
      "stateMutability": "view",
      "type": "function"
    },
    {
      "inputs": [],
      "name": "getTransactionCount",
      "outputs": [
        {
          "internalType": "uint256",
          "name": "",
          "type": "uint256"
        }
      ],
      "stateMutability": "view",
      "type": "function"
    },
    {
      "inputs": [
        {
          "internalType": "uint256",
          "name": "_id",
          "type": "uint256"
        },
        {
          "internalType": "string",
          "name": "_verificationCode",
          "type": "string"
        },
        {
          "internalType": "string",
          "name": "_verifierName",
          "type": "string"
        },
        {
          "internalType": "string",
          "name": "_reason",
          "type": "string"
        }
      ],
      "name": "requestRemoval",
      "outputs": [
        {
          "internalType": "bool",
          "name": "",
          "type": "bool"
        }
      ],
      "stateMutability": "nonpayable",
      "type": "function"
    }
  ],
  "bytecode": "0x608060405234801561001057600080fd5b5060405161124b38038061124b833981810160405281019061003291906100a0565b806000908161004191906103c4565b5050610484565b600080fd5b600080fd5b600080fd5b600080fd5b600080fd5b60008083601f84011261007657610075610051565b5b8235905067ffffffffffffffff83111561009357610092610056565b5b60208301915083600182028301111561009e5761009d61005b565b5b9250929050565b6000602082840312156100b6576100b5610047565b5b600082013567ffffffffffffffff8111156100d4576100d361004c565b5b6100e084828501610060565b91505092915050565b600081519050919050565b7f4e487b7100000000000000000000000000000000000000000000000000000000600052604160045260246000fd5b7f4e487b7100000000000000000000000000000000000000000000000000000000600052602260045260246000fd5b6000601f19601f8301169050919050565b6000610170826100e9565b61017a8185846000549050565b935061018583610144565b8060005b838110156101b657815161019d8882610276565b975061019a83610169565b9250506001810190506101ff565b5085935050505092915050565b600082825260208201905092915050565b82818337600083830152505050565b60006101f08385846101ce565b9350836020840285016101d9565b8091505092915050565b600082905092915050565b600061021483856101fd565b935061022183858461022a565b82841061022e57610157565b5090949350505050565b600080fd5b6000601f19601f8301169050919050565b61025781610240565b810181811067ffffffffffffffff8211171561027657610275610104565b5b80604052505050565b60006102868284610165565b915081905092915050565b60008190508160005260206000209050919050565b600082825260208201905092915050565b6000815490506102c7816101df565b92915050565b6000819050919050565b6102e0816102cd565b81146102eb57600080fd5b50565b600081519050919050565b60005b838110156103145780820151818401526020810190506102f9565b83811115610323576000848401525b50505050565b600061033482610291565b61033e81856102a0565b935061034e8185602086016102f1565b61035781610144565b840191505092915050565b6000610372838561033e565b93508360208402850161022a565b8091505092915050565b600061038c8383610329565b905092915050565b6000826103a0576103ba565b826000815460018160011615610100020316600290046000825580601f106103ca5761010a565b905090565b6001600160e01b0319841660006103de826000610208565b9350836020840284018461022a565b83610157576000838060200260200160405190810160405280939291908181526020018383602002808284376000839050505050505b50600091509150565b6103f581610240565b8160206000526000836000825580601f10610410576103ca565b9050600160008361041156610157565b61041f826000610208565b9150816020840285010190506000828461045057610449610236565b5b82820391505b8491508491506020810391505081816020860283010190506000828461045057610157565b83519384525050602085019250600160e01b1990505092915050565b610dc880620004946000396000f3fe608060405234801561001057600080fd5b50600436106100625760003560e01c80630d4a1b101461006757806312065fe0146100975780631c7d1e59146100b55780633d8d4bec146100c957806361ea9c9d146100f9578063e4e38de314610115575b600080fd5b610081600480360381019061007c9190610721565b610145565b60405161008e919061088c565b60405180910390f35b61009f6101e7565b6040516100ac91906109a0565b60405180910390f35b6100c36104b0565b6040516100d091906107dc565b60405180910390f35b6100e360048036038101906100de91906107f7565b6104c3565b6040516100f09190610abb565b60405180910390f35b610113600480360381019061010e9190610ad6565b6106c5565b005b61012f600480360381019061012a9190610b63565b6106ea565b60405161013c919061088c565b60405180910390f35b6000816004600101600083815260200190815260200160002060090154036101b657826004600101600083815260200190815260200160002060050190816101889190610c99565b508160046001016000838152602001908152602001600020600601908161019f9190610c99565b506001915050610145565b826004600101600083815260200190815260200160002060070190816101d89190610c99565b506000915050610145565b60008060026000815480929190610201906107a7565b9190505550600360008154809291906102199190610778565b91905055506002546003546040517f0000000000000000000000000000000000000000000000000000000000000000815260206004820152602260248201527f6c6962726172792f6e6f2d636f6d70617469626c652d66756e6374696f6e2d66604482015261627960f01b60648201526084015b60405180910390fd5b6060816004600081548092919061024e906107a7565b91905055506004600060048054905081526020019081526020016000206000018190555083600460006004805490508152602001908152602001600020600101908161029d9190610c99565b5082600460006004805490508152602001908152602001600020600201908161029d9190610c99565b5081600460006004805490508152602001908152602001600020600301908161029d9190610c99565b5080600460006004805490508152602001908152602001600020600401819055506000600460006004805490508152602001908152602001600020600601908161029d9190610c99565b506000600460006004805490508152602001908152602001600020600701908161029d9190610c99565b504260046000600480549050815260200190815260200160002060080181905550600060046000600480549050815260200190815260200160002060090160006101000a81548160ff0219169083151502179055506000600460006004805490508152602001908152602001600020600a01908161029d9190610c99565b506000600460006004805490508152602001908152602001600020600b01908161029d9190610c99565b50600060046000600480549050815260200190815260200160002060060201819055507f34455669d6d5b38bc20513a735fed8b0d5aaee0649934beee6f0271510752b2d6000805490506000805461029d9190610c99565b91505090565b600080828154610498906107a7565b91905055506000546003546040517f0000000000000000000000000000000000000000000000000000000000000000815260206004820152602260248201527f6c6962726172792f6e6f2d636f6d70617469626c652d66756e6374696f6e2d66604482015261627960f01b6064820152608401610216565b60008060026000815480929190610201906107a7565b60608060026000815480929190610201906107a7565b6000816004600101600083815260200190815260200160002060090160009054906101000a900460ff1661057557836000805461050e9190610c99565b6040517f08c379a000000000000000000000000000000000000000000000000000000000815260040161056c906107bc565b60405180910390fd5b600060046001016000838152602001908152602001600020905060018160090160006101000a81548160ff0219169083151502179055504281600c0181905550868160080190816105c49190610c99565b5088816007019081816105c49190610c99565b507f0a79a4e1882b91153ba1f88681882bdc1a7700312c0415522d21bd3a71c5dad7828988604051610600939291906108a7565b60405180910390a160008460046001016000838152602001908152602001600020600a01908190518015906106405750828110155b61064957600080fd5b600260008154809291906106459190610778565b919050555060019050610145565b6000826004600101600083815260200190815260200160002060090154036101b657836004600101600083815260200190815260200160002060060190816101889190610c99565b5060009150506101e7565b6000816004600101600083815260200190815260200160002060090154036101b6576001600360008282546106559190610778565b92505081909060005260206000209050600183039050845184518593508592509061067e9190610778565b92505050600182039050845184518593508592509061069b9190610778565b9250505060008360026000839050835183518593856356db7f9e0160e01b6000526004601cfd5b505050505050505050565b6000848460006106d4846106ea565b9550841415925050509392505050565b60008082815260200190815260200160002060006003548154610494906107a7565b6000815190506106f3816108e9565b92915050565b600082601f83011261070e5761070d610d2d565b5b813561071e848260208601610d32565b91505092915050565b6000806040838503121561073857610737610d74565b5b600083013567ffffffffffffffff81111561075657610755610d79565b5b610762858286016106f9565b925050602083013567ffffffffffffffff81111561078357610782610d7e565b5b61078f858286016106f9565b9150509250929050565b60006107a282356107e9565b905092915050565b6000819050919050565b6000819050919050565b6107c68161040e565b82525050565b6107d58161040e565b82525050565b60006020820190506107f060008301846107c6565b92915050565b60006020828403121561080d5761080c610d83565b5b600061081b84828501610796565b91505092915050565b60006108398284546000549050565b9250929050565b600061085384846000549050565b9250929050565b600061087284846000549050565b9250929050565b61088681836000549050565b505050565b60008115159050919050565b6108a581610890565b82525050565b60006060820190506108c0600083018661089c565b81810360208301526108d2818561082d565b90506108e1604083018461089c565b949350505050565b6108f28161040e565b811461090357610902610d88565b5b50565b600061091586846000549050565b9250929050565b6000610922846000549050565b9150808252602082016020820280546001600160e01b0319166001600160e01b03191681808402820184015260208401602084028301858189548102829003610100810192909204601f81018490048402850182019052858452919290910191849084908115610100159081161581026001821615610100191690920201166001821615610100191690920201166001821615610100191690920201168389838a6000838989886009600a600b600c8c8c8c8c8c8c8c8c8c8c8c8c905b600f831015610a7657600184039350600182019150602081019050610a45565b505050505050505050505050505050505050505050509392505050565b60608682527f5265636f726420616c72656164792072656d6f7665640000000000000000000060208301526000604083015282600060048481019081111561049457600080fd5b60f88a82527f496e76616c696420766572696669636174696f6e20636f64650000000000000060208301526000604083015282600060048481019081111561049857600080fd5b610a0481610890565b8114610a1457610a13610d8d565b5b50565b60008161049f8461074e565b82525050565b60006060820190508181036000830152610a54818761082d565b9050610a63602083018661089c565b610a70604083018561089c565b949350505050565b600060a08201905081810360008301526020820152604082015260608201526080820152600a9050919050565b610aa58161040e565b82525050565b610ab481610890565b82525050565b6000602082019050610acf6000830184610a9c565b92915050565b600080600080600060a08688031215610af257610af1610d92565b5b600086013567ffffffffffffffff811115610b1057610b0f610d97565b5b610b1c888289016106f9565b955050602086013567ffffffffffffffff811115610b3d57610b3c610d9c565b5b610b49888289016106f9565b9450506040610b5a888289016106f9565b93505060608601356080870135610481565b60008060008060808587031215610b7c57610b7b610da1565b5b600085013567ffffffffffffffff811115610b9a57610b99610da6565b5b610ba6878288016106f9565b945050602085013567ffffffffffffffff811115610bc757610bc6610dab565b5b610bd3878288016106f9565b935050604085013567ffffffffffffffff811115610bf457610bf3610db0565b5b610c00878288016106f9565b925050606085013567ffffffffffffffff811115610c2157610c20610db5565b5b610c2d878288016106f9565b91505092959194509250565b50565b600082610c4d57610c59565b600160008361049f61074e565b50600091509150565b600082610c7157610c7d565b600082610c7d57610c89565b6000826001600160e01b0319831615610c895750505b5b50919050565b600082905092915050565b60008190508160005260206000209050919050565b600082825260208201905092915050565b600081549050610cda816102db565b9250506020600020905b815481529060010190602001808311610cc4575b505050505080915050919050565b600082fdfea2646970667358221220c5b8cb57d02061b7552b0970baacaaeb8fda8ad3e591a103b10dca05ffa2510b64736f6c634300080a0033",
  "linkReferences": {},
  "deployedLinkReferences": {}
}